{
  "address": "0xcC67c99E49EfE35b9e2ED92c6D6Ae7560aDDE714",
  "abi": [
    {
      "inputs": [
        {
          "internalType": "uint256",
          "name": "amountIn",
          "type": "uint256"
        },
        {
          "internalType": "uint256",
          "name": "amountOutMin",
          "type": "uint256"
        }
      ],
      "name": "swapSingleHopExactAmountIn",
      "outputs": [
        {
          "internalType": "uint256",
          "name": "amountOut",
          "type": "uint256"
        }
      ],
      "stateMutability": "nonpayable",
      "type": "function"
    }
  ],
  "transactionHash": "0xcf0316bc427b5a55ea073d83c61b0fe3be1bfd9759fbb6481b639588758868c5",
  "args": [],
  "numDeployments": 1,
  "solcInputHash": "1857b77e79587d76dd1982100bf63cc5",
  "bytecode": "0x6080604052737a250d5630b4cf539739df2c5dacb4c659f2488d6000806101000a81548173ffffffffffffffffffffffffffffffffffffffff021916908373ffffffffffffffffffffffffffffffffffffffff16021790555073dac17f958d2ee523a2206206994597c13d831ec7600160006101000a81548173ffffffffffffffffffffffffffffffffffffffff021916908373ffffffffffffffffffffffffffffffffffffffff160217905550738ac76a51cc950d9822d68b83fe1ad97b32cd580d600260006101000a81548173ffffffffffffffffffffffffffffffffffffffff021916908373ffffffffffffffffffffffffffffffffffffffff16021790555034801561010e57600080fd5b506108908061011e6000396000f3fe608060405234801561001057600080fd5b506004361061002b5760003560e01c8063e476777714610030575b600080fd5b61004a600480360381019061004591906103ec565b610060565b604051610057919061043b565b60405180910390f35b6000600160009054906101000a900473ffffffffffffffffffffffffffffffffffffffff1673ffffffffffffffffffffffffffffffffffffffff166323b872dd3330866040518463ffffffff1660e01b81526004016100c193929190610497565b6020604051808303816000875af11580156100e0573d6000803e3d6000fd5b505050506040513d601f19601f820116820180604052508101906101049190610506565b50600160009054906101000a900473ffffffffffffffffffffffffffffffffffffffff1673ffffffffffffffffffffffffffffffffffffffff1663095ea7b3737a250d5630b4cf539739df2c5dacb4c659f2488d856040518363ffffffff1660e01b8152600401610176929190610533565b6020604051808303816000875af1158015610195573d6000803e3d6000fd5b505050506040513d601f19601f820116820180604052508101906101b99190610506565b506060600267ffffffffffffffff8111156101d7576101d661055c565b5b6040519080825280602002602001820160405280156102055781602001602082028036833780820191505090505b50905073dac17f958d2ee523a2206206994597c13d831ec7816000815181106102315761023061058b565b5b602002602001019073ffffffffffffffffffffffffffffffffffffffff16908173ffffffffffffffffffffffffffffffffffffffff1681525050738ac76a51cc950d9822d68b83fe1ad97b32cd580d816001815181106102945761029361058b565b5b602002602001019073ffffffffffffffffffffffffffffffffffffffff16908173ffffffffffffffffffffffffffffffffffffffff168152505060008060009054906101000a900473ffffffffffffffffffffffffffffffffffffffff1673ffffffffffffffffffffffffffffffffffffffff166338ed173986868533426040518663ffffffff1660e01b8152600401610332959493929190610678565b6000604051808303816000875af1158015610351573d6000803e3d6000fd5b505050506040513d6000823e3d601f19601f8201168201806040525081019061037a9190610811565b9050806001815181106103905761038f61058b565b5b60200260200101519250505092915050565b6000604051905090565b600080fd5b600080fd5b6000819050919050565b6103c9816103b6565b81146103d457600080fd5b50565b6000813590506103e6816103c0565b92915050565b60008060408385031215610403576104026103ac565b5b6000610411858286016103d7565b9250506020610422858286016103d7565b9150509250929050565b610435816103b6565b82525050565b6000602082019050610450600083018461042c565b92915050565b600073ffffffffffffffffffffffffffffffffffffffff82169050919050565b600061048182610456565b9050919050565b61049181610476565b82525050565b60006060820190506104ac6000830186610488565b6104b96020830185610488565b6104c6604083018461042c565b949350505050565b60008115159050919050565b6104e3816104ce565b81146104ee57600080fd5b50565b600081519050610500816104da565b92915050565b60006020828403121561051c5761051b6103ac565b5b600061052a848285016104f1565b91505092915050565b60006040820190506105486000830185610488565b610555602083018461042c565b9392505050565b7f4e487b7100000000000000000000000000000000000000000000000000000000600052604160045260246000fd5b7f4e487b7100000000000000000000000000000000000000000000000000000000600052603260045260246000fd5b600081519050919050565b600082825260208201905092915050565b6000819050602082019050919050565b6105ef81610476565b82525050565b600061060183836105e6565b60208301905092915050565b6000602082019050919050565b6000610625826105ba565b61062f81856105c5565b935061063a836105d6565b8060005b8381101561066b57815161065288826105f5565b975061065d8361060d565b92505060018101905061063e565b5085935050505092915050565b600060a08201905061068d600083018861042c565b61069a602083018761042c565b81810360408301526106ac818661061a565b90506106bb6060830185610488565b6106c8608083018461042c565b9695505050505050565b600080fd5b6000601f19601f8301169050919050565b6106f1826106d7565b810181811067ffffffffffffffff821117156107105761070f61055c565b5b80604052505050565b60006107236103a2565b905061072f82826106e8565b919050565b600067ffffffffffffffff82111561074f5761074e61055c565b5b602082029050602081019050919050565b600080fd5b600081519050610774816103c0565b92915050565b600061078d61078884610734565b610719565b905080838252602082019050602084028301858111156107b0576107af610760565b5b835b818110156107d957806107c58882610765565b8452602084019350506020810190506107b2565b5050509392505050565b600082601f8301126107f8576107f76106d2565b5b815161080884826020860161077a565b91505092915050565b600060208284031215610827576108266103ac565b5b600082015167ffffffffffffffff811115610845576108446103b1565b5b610851848285016107e3565b9150509291505056fea264697066735822122066161d1c94e392842917c9ae5eefd88fde97749b7032afcd1a06cd4eed754c5a64736f6c63430008140033",
  "devdoc": {
    "kind": "dev",
    "methods": {},
    "version": 1
  },
  "userdoc": {
    "kind": "user",
    "methods": {},
    "version": 1
  },
  "storageLayout": {
    "storage": [
      {
        "astId": 112,
        "contract": "contracts/Swaps.sol:Swaps",
        "label": "uniswapRouter",
        "offset": 0,
        "slot": "0",
        "type": "t_contract(IUniswapRouter)19"
      },
      {
        "astId": 118,
        "contract": "contracts/Swaps.sol:Swaps",
        "label": "USDT",
        "offset": 0,
        "slot": "1",
        "type": "t_contract(IERC20)86"
      },
      {
        "astId": 124,
        "contract": "contracts/Swaps.sol:Swaps",
        "label": "USDC",
        "offset": 0,
        "slot": "2",
        "type": "t_contract(IERC20)86"
      }
    ],
    "types": {
      "t_contract(IERC20)86": {
        "encoding": "inplace",
        "label": "contract IERC20",
        "numberOfBytes": "20"
      },
      "t_contract(IUniswapRouter)19": {
        "encoding": "inplace",
        "label": "contract IUniswapRouter",
        "numberOfBytes": "20"
      }
    }
  }
}